:020000020000FC
:10000000496E7365727461206C612063616E7469FE
:10001000646164206465207061736F73207175651D
:1000200020726570726573656E746120756E2070E4
:10003000756E746F28312D38293A202456616C6F03
:100040007220696E76616C69646F20696E74656E8A
:100050007461206F7472612076657A0D0A24496E8E
:10006000736572746520737520636F6469676F20B0
:100070004720646562652066696E616C697A6172A9
:1000800020636F6E20656C20636F6469676F204D1D
:1000900030303A0D0A2408E00EBF0FEF0DBF0F936A
:1000A0001F930F930FEF04B92F911F910F910F938F
:1000B0001F930F930FE007B92F911F910F910F938B
:1000C0001F930F930FEF05B92F911F910F910F936E
:1000D0001F930F930FE008B92F911F910F910F936A
:1000E0001F930F9310E00CE01093C5000093C40021
:1000F00008E10093C10006E00093C2002F911F9118
:100100000F910E94F4010F931F930F9305E000934A
:1001100000012F911F910F910F931F930F9306E0F2
:10012000009301012F911F910F910F931F930F9334
:100130000AE0009302012F911F910F910F931F93DB
:100140000F9309E0009303012F911F910F910093EA
:1001500004010F931F930F9300E0009305012F916B
:100160001F910F9102E30E947D020A950F931F9346
:100170000F93EF93FF93E4E6F0E002E01BE41A959F
:10018000F1F70A95E1F700003197E030B1F7F03070
:10019000A1F7FF91EF912F911F910F9121F702E3AA
:1001A0000E9494020A950F931F930F93EF93FF936E
:1001B000E4E6F0E002E01BE41A95F1F70A95E1F7B6
:1001C00000003197E030B1F7F030A1F7FF91EF91E7
:1001D0002F911F910F9121F702E30E94C4020A950B
:1001E0000F931F930F93EF93FF93E4E6F0E002E089
:1001F0001BE41A95F1F70A95E1F700003197E0301A
:10020000B1F7F030A1F7FF91EF912F911F910F916E
:1002100021F702E30E94DB020A950F931F930F93CD
:10022000EF93FF93E4E6F0E002E01BE41A95F1F7A8
:100230000A95E1F700003197E030B1F7F030A1F70F
:10024000FF91EF912F911F910F9121F70E94F401DF
:100250000F931F930F93EF93FF93EEE5F0E005915B
:10026000043269F00F931F930F930091C00005FFB4
:10027000FCCF2F911F910F910093C600F0CFFF91FB
:10028000EF912F911F910F910E9465010E94D9015A
:100290000F931F930F93EF93FF93ECE3F0E005911F
:1002A000043269F00F931F930F930091C00005FF74
:1002B000FCCF2F911F910F910093C600F0CFFF91BB
:1002C000EF912F911F910F911ECF0F931F930F93BB
:1002D0000091C00005FFFCCF0EE30093C6002F91F4
:1002E0001F910F910E9490010E94D9010F931F93BB
:1002F0000F93EF93FF93E8EEF3E002E01BE41A950F
:10030000F1F70A95E1F700003197E030B1F7F030EE
:10031000A1F7FF91EF912F911F910F91D6CF0895E3
:100320000F931F930F93EF93FF93E6E0F1E01127F4
:100330000F931F930F930091C00007FFFCCF2F91E5
:100340001F910F910091C6000D3029F1083089F4FA
:10035000103071F31A9531970F931F930F930091FB
:10036000C00005FFFCCF2F911F910F910093C60095
:10037000DFCF0F931F930F930091C00005FFFCCFB9
:100380002F911F910F910093C60000831395319612
:10039000133671F600C00F931F930F9304E200838E
:1003A0002F911F910F91FF91EF912F911F910F911D
:1003B00008950F931F930F930091C00005FFFCCF8A
:1003C0000DE00093C6002F911F910F910F931F9383
:1003D0000F930091C00005FFFCCF0AE00093C60018
:1003E0002F911F910F9108950F931F930F930F93C8
:1003F0001F930F930091C00005FFFCCF0BE100930A
:10040000C6002F911F910F910F931F930F9300918F
:10041000C00005FFFCCF0BE50093C6002F911F9194
:100420000F910F931F930F930091C00005FFFCCF16
:1004300002E30093C6002F911F910F910F931F931A
:100440000F930091C00005FFFCCF0AE40093C600A3
:100450002F911F910F910F931F930F930091C00045
:1004600005FFFCCF0BE10093C6002F911F910F9168
:100470000F931F930F930091C00005FFFCCF0BE576
:100480000093C6002F911F910F910F931F930F930D
:100490000091C00005FFFCCF00E30093C6002F9140
:1004A0001F910F910F931F930F930091C00005FFB1
:1004B000FCCF0BE30093C6002F911F910F910F9378
:1004C0001F930F930091C00005FFFCCF00E3009342
:1004D000C6002F911F910F910F931F930F930091BF
:1004E000C00005FFFCCF08E40093C6002F911F91C8
:1004F0000F912F911F910F9108950F930091050176
:1005000003700395043009F400E0109105011C7F8D
:10051000012B00930501A0E0B1E01070A00FB11F06
:100520000C9105B90F9108950F9310910501187161
:100530001395143009F410E000910501077E102B8B
:1005400010930501C0E0D1E01070C10FD11F0881E8
:10055000029505B90F9108950F9320910501207C14
:100560002395243009F420E0009105010F73202B1E
:1005700020930501E0E0F1E01070E20FF11F00812F
:10058000029508B90F9108950F930091050103702A
:100590000A950F3F09F403E0109105011C7F012B20
:1005A00000930501A0E0B1E01070A00FB11F0C9105
:1005B00005B90F9108950F931091050118711A95BF
:1005C0001F3F09F413E000910501077E102B1093E3
:1005D0000501C0E0D1E01070C10FD11F0881029564
:1005E00005B90F9108950F9320910501207C2A955C
:1005F0002F3F09F423E0009105010F73202B209376
:100600000501E0E0F1E01070E20FF11F00810295BA
:0606100008B90F910895E6
:00000001FF
