:020000020000FC
:10000000496E7365727461206C612063616E7469FE
:10001000646164206465207061736F73207175651D
:1000200020726570726573656E746120756E2070E4
:10003000756E746F28312D38293A202456616C6F03
:100040007220696E76616C69646F20696E74656E8A
:100050007461206F7472612076657A0D0A24496E8E
:10006000736572746520737520636F6469676F20B0
:100070004720646562652066696E616C697A6172A9
:1000800020636F6E20656C20636F6469676F204D1D
:1000900030303A0D0A2408E00EBF0FEF0DBF0F936A
:1000A0001F930FEF04B91F910F910F931F930FE050
:1000B00007B91F910F910F931F930FEF05B91F9170
:1000C0000F910F931F930FE008B91F910F910F939A
:1000D0001F9310E00CE01093C5000093C40008E1EA
:1000E0000093C10006E00093C2001F910F910E948F
:1000F00073010F931F9305E0009300011F910F916F
:100100000F931F9306E0009301011F910F910F932E
:100110001F930AE0009302011F910F910F931F9309
:1001200009E0009303011F910F9100930401A0E0E7
:10013000B1E00091050103700F931F93EF93FF93BC
:10014000EAEFF0E002E01BE41A95F1F70A95E1F717
:1001500000003197E030B1F7F030A1F7FF91EF9157
:100160001F910F91A0E0B1E0A00F1070B11F1C9182
:1001700015B90395043009F400E0DECFD1F60E94F2
:1001800073010F931F93EF93FF93EEE5F0E005915A
:10019000043259F00F931F930091C00005FFFCCF6C
:1001A0001F910F910093C600F2CFFF91EF911F9125
:1001B0000F910E94F6000E945C010F931F93EF9332
:1001C000FF93ECE3F0E00591043259F00F931F9395
:1001D0000091C00005FFFCCF1F910F910093C60056
:1001E000F2CFFF91EF911F910F9183CF0F931F9348
:1001F0000091C00005FFFCCF0EE30093C6001F91E5
:100200000F910E941D010E945C010F931F93EF93B9
:10021000FF93E8EEF3E002E01BE41A95F1F70A958C
:10022000E1F700003197E030B1F7F030A1F7FF912E
:10023000EF911F910F91DACF08950F931F93EF93D2
:10024000FF93E6E0F1E011270F931F930091C000A8
:1002500007FFFCCF1F910F910091C6000D3009F1EF
:10026000083079F4103081F31A9531970F931F936A
:100270000091C00005FFFCCF1F910F910093C600B5
:10028000E3CF0F931F930091C00005FFFCCF1F9198
:100290000F910093C6000083139531961336A1F693
:1002A00000C00F931F9304E200831F910F91FF91F1
:1002B000EF911F910F9108950F931F930091C0002C
:1002C00005FFFCCF0DE00093C6001F910F910F9327
:1002D0001F930091C00005FFFCCF0AE00093C60009
:1002E0001F910F9108950F931F930F931F930091E8
:1002F000C00005FFFCCF0BE10093C6001F910F91DA
:100300000F931F930091C00005FFFCCF0BE50093F6
:10031000C6001F910F910F931F930091C00005FF1E
:10032000FCCF02E30093C6001F910F910F931F9320
:100330000091C00005FFFCCF0AE40093C6001F91A6
:100340000F910F931F930091C00005FFFCCF0BE1AD
:100350000093C6001F910F910F931F930091C0004F
:1003600005FFFCCF0BE50093C6001F910F910F9383
:100370001F930091C00005FFFCCF00E30093C6006F
:100380001F910F910F931F930091C00005FFFCCFA9
:100390000BE30093C6001F910F910F931F930091E1
:1003A000C00005FFFCCF00E30093C6001F910F9132
:1003B0000F931F930091C00005FFFCCF08E400934A
:1003C000C6001F910F911F910F9108950CE30E9499
:0803D0005C010A950030D9F729
:00000001FF
