:020000020000FC
:10000000473030205830205930205A350A47303098
:100010002058362059360A473031205A2D350A47A4
:100020003031205833392059360A4730312058337F
:1000300039205931360A473031205832372059316A
:10004000360A47303120583335205934300A47308A
:100050003120583638205934300A4730312058374B
:1000600035205931360A473031205836342059313D
:10007000360A473031205836342059360A47303155
:10008000205839362059360A473031205839362021
:100090005931360A47303120583838205931360A1C
:1000A00047303120583631205939320A4730312013
:1000B000583731205939320A4730312058373120EA
:1000C000593130320A4730312058333020593130DD
:1000D000320A47303120583330205939320A4730FC
:1000E0003120583430205939320A473031205831C4
:1000F00035205931360A47303120583620593136AB
:100100000A4730312058362059360A473031205AB4
:10011000350A47303020583338205934350A4730B3
:1001200031205A2D350A4730312058363520593480
:10013000350A4730312058353120205939300A47A7
:10014000303120583338205934350A47303120585F
:100150003335205934310A47303120583638205948
:1001600034310A47303120583638205934330A4761
:10017000303120583335205934330A473031205834
:100180003335205934330A47303120583638205916
:1001900034330A47303120583737205931350A4730
:1001A000303120583635205931350A473031205802
:1001B00036352059390A47303120583935205939D8
:1001C0000A47303120583935205931350A47303106
:1001D00020583838205931350A47303120583838BE
:1001E000205931330A4730312058393320593133BF
:1001F0000A47303120583933205931300A473031DD
:1002000020583637205931300A4730312058363798
:10021000205931330A47303120583737205931338C
:100220000A47303120583737205931320A473031A8
:1002300020583638205931320A4730312058393267
:10024000205931320A473031205839322059313360
:100250000A47303120583738205931330A47303176
:1002600020583738205931350A473031205838382E
:10027000205931350A473031205838362059313627
:100280000A47303120583736205931360A47303145
:100290002058353320205939300A4730312058351D
:1002A00035205939300A47303120583738205931F4
:1002B000360A4730312058383020205931360A4725
:1002C000303120583537205939300A4730312058DD
:1002D0003539205939300A473031205838322059C1
:1002E00031360A47303120583834205931360A47E0
:1002F000303120583631205939300A4730312058B2
:100300003631205939300A47303120583836205993
:1003100031360A4730312058383820593136200AD2
:1003200047303120583630205939310A4730312092
:10033000583531205939310A47303120583531206C
:100340005939340A47303120583730205939340A66
:100350004730312058373020593130310A47303159
:100360002058333120593130310A47303120583349
:1003700031205939390A4730312058363820593917
:10038000390A47303120583638205939380A473031
:100390003120583331205939380A47303120583309
:1003A00031205939360A47303120583638205939EA
:1003B000360A47303120583638205939350A473007
:1003C0003120583331205939350A473031205833DC
:1003D00031205939330A47303120583531205939C5
:1003E000330A47303120583236205931360A4730E7
:1003F0003120583234205931360A473031205835AF
:1004000030205939350A473031205834392059398C
:10041000350A47303120583233205931360A4730B7
:100420003120583231205931360A47303120583482
:1004300037205939350A4730312058343520593959
:10044000350A47303120583230205931360A47308A
:100450003120583138205931360A4730312058344C
:1004600033205939350A4730312058343220593930
:10047000350A47303120583136205931360A473055
:100480003120583136205931350A4730312058371C
:10049000205931350A4730312058372059370A471B
:1004A0003031205833382059370A473031205833FB
:1004B000382059380A4730312058382059380A47EF
:1004C00030312058382059390A47303120583338D4
:1004D0002059390A47303120583338205931300AF1
:1004E000473031205838205931300A4730312058B0
:1004F00038205931310A47303120583338205931AA
:10050000310A47303120583338205931320A4730C8
:1005100031205838205931320A473031205838209C
:100520005931330A47303120583338205931330A92
:1005300047303120583338205931340A4730312080
:100540005838205931340A47303120583820593131
:10055000350A47303120583338205931350A473071
:1005600031205A350A473030205834362059353139
:100570000A473031205A2D350A4730312058353757
:10058000205935310A473031205835312059373616
:100590000A47303120583436205935310A47303136
:1005A000205A2D390A4730312058353720593531F6
:1005B0000A47303120583531205937360A47303113
:1005C00020583436205935310A473031205A2D31E0
:1005D000330A47303120583537205935310A4730F2
:1005E0003120583531205937360A473031205834B8
:1005F00036205935310A473031205A2D31370A47D4
:10060000303120583537205935310A47303120589C
:100610003531205937360A47303120583436205981
:1006200035310A473031205A350A473030205830AA
:100630002059300A473031205A2D350A47303120B1
:100640005830205932300A47303120583130205943
:1006500032300A47303120583331205938360A4772
:10066000303120583232205938360A47303120583C
:10067000323220593130370A47303120583737204D
:10068000593130370A4730312058373720593836FA
:100690000A47303120583639205938360A47303128
:1006A00020583932205932300A4730312058313001
:1006B00031205932300A47303120583130312059F9
:1006C000300A473031205835382059300A47303108
:1006D00020583538205932300A47303120583637C3
:1006E000205932300A4730312058363320593334BC
:1006F0000A47303120583339205933340A473031D2
:1007000020583335205932300A473031205834339D
:10071000205932300A473031205834332059300ABA
:100720004730312058302059300A473031205A2D77
:10073000390A473031205830205932300A47303199
:1007400020583130205932300A4730312058333167
:10075000205938360A47303120583232205938363D
:100760000A4730312058323220593130370A473069
:10077000312058373720593130370A473031205827
:100780003737205938360A47303120583639205902
:1007900038360A47303120583932205932300A472A
:1007A00030312058313031205932300A4730312031
:1007B000583130312059300A4730312058353820EF
:1007C00059300A47303120583538205932300A47DD
:1007D000303120583637205932300A4730312058CE
:1007E0003633205933340A473031205833392059B1
:1007F00033340A47303120583335205932300A47D4
:10080000303120583433205932300A4730312058A3
:1008100034332059300A4730312058302059300ABB
:10082000473031205A2D31330A473031205830209B
:100830005932300A47303120583130205932300A8D
:1008400047303120583331205938360A473031206B
:10085000583232205938360A473031205832322047
:10086000593130370A473031205837372059313025
:10087000370A47303120583737205938360A473041
:100880003120583639205938360A47303120583906
:1008900032205932300A4730312058313031205916
:1008A00032300A47303120583130312059300A4730
:1008B0003031205835382059300A473031205835EA
:1008C00038205932300A47303120583637205932D3
:1008D000300A47303120583633205933340A4730F4
:1008E0003120583339205933340A473031205833B6
:1008F00035205932300A47303120583433205932AC
:10090000300A473031205834332059300A473031CB
:100910002058302059300A473031205A2D31370ABB
:10092000473031205830205932300A473031205872
:100930003130205932300A47303120583331205974
:1009400038360A47303120583232205938360A4773
:1009500030312058323220593130370A4730312077
:1009600058373720593130370A4730312058373718
:10097000205938360A473031205836392059383610
:100980000A47303120583932205932300A47303145
:100990002058313031205932300A47303120583117
:1009A00030312059300A47303120583538205930FD
:1009B0000A47303120583538205932300A47303113
:1009C00020583637205932300A47303120583633D4
:1009D000205933340A4730312058333920593334C1
:1009E0000A47303120583335205932300A473031E8
:1009F00020583433205932300A47303120583433AC
:100A00002059300A4730312058302059300A4730B9
:100A100031205A350A473030205830205930205A7A
:100A2000350A4D30302408E00EBF0FEF0DBF0F9395
:100A30001F932F930FEF04B92F911F910F910F93D5
:100A40001F932F930FE007B92F911F910F910F93D1
:100A50001F932F9300E005B92F911F910F910F93D2
:100A60001F932F9300E008B92F911F910F910F93BF
:100A70001F932F9305E0009300012F911F910F9179
:100A80000F931F932F9306E0009301012F911F9165
:100A90000F910F931F932F930AE0009302012F9160
:100AA0001F910F910F931F932F9309E00093030160
:100AB0002F911F910F910F931F932F9300E000939D
:100AC00004012F911F910F9104E60E94D9050E9405
:100AD000F6050F931F932F93EF93FF93E2E3F0E05C
:100AE0002BE033E63A95F1F72A95E1F73197E030BC
:100AF000B9F7F030A9F7FF91EF912F911F910F9166
:100B00000A9519F704E60E9443060F931F932F934B
:100B1000EF93FF93E2E3F0E02BE033E63A95F1F751
:100B20002A95E1F73197E030B9F7F030A9F7FF9156
:100B3000EF912F911F910F910A9529F704E60E94DA
:100B4000D9050E9460060F931F932F93EF93FF9395
:100B5000E2E3F0E02BE033E63A95F1F72A95E1F78E
:100B60003197E030B9F7F030A9F7FF91EF912F916D
:100B70001F910F910A9519F704E60E9443060F93FF
:100B80001F932F93EF93FF93E2E3F0E02BE033E624
:100B90003A95F1F72A95E1F73197E030B9F7F0305F
:100BA000A9F7FF91EF912F911F910F910A9529F7C6
:100BB00008950F930091040103700395043009F424
:100BC00000E0A0E0B1E01F93A00F1070B11F1F91D3
:100BD000109104011C7F012B009304010C9115B1AD
:100BE000107F012B05B973950F9108950F93109104
:100BF000040118711695169516951395143009F47D
:100C000010E0C0E0D1E01F93C10F1070D11F1F9101
:100C1000110F110F110F00910401077E102B10937B
:100C200004010881029515B11F70012B05B9839548
:100C30000F9108950F9320910401207C269526950D
:100C400026952695269526952395243009F420E0AF
:100C5000E0E0F1E01F93E20F1070F11F1F9100918F
:100C60000401220F220F220F220F220F220F0F73D7
:100C7000202B20930401008118B1107F012B08B9AB
:100C800093950F9108950F930091040103700A95B5
:100C90000F3F09F403E0A0E0B1E01F93A00F107034
:100CA000B11F1F91109104011C7F012B00930401BF
:100CB0000C9115B1107F012B05B97A950F9108950C
:100CC0000F931091040118711695169516951A95A3
:100CD0001F3F09F413E0C0E0D1E01F93C10F107073
:100CE000D11F1F91110F110F110F00910401077EE9
:100CF000102B109304010881029515B11F70012B70
:100D000005B98A950F9108950F9320910401207CD5
:100D10002695269526952695269526952A952F3F44
:100D200009F423E0E0E0F1E01F93E20F1070F11FFF
:100D30001F9100910401220F220F220F220F220F78
:100D4000220F0F73202B20930401008118B1107F14
:0E0D5000012B08B99A950F910895FFCF0895D1
:00000001FF
